:020000020000FC
:020000004AC0F4
:1000040022C018951895189518951895189518954F
:04001400189518958E
:10002C0028C0189518951895189518951895189521
:10003C00189518951895189518951895189555277D
:10004C0066275FEF5A95F1F76395D9F718E03030D2
:10005C0039F402E0100F1093810009D031E01895AB
:10006C0003E0100F1093810002D030E01895E09A55
:10007C000895003021F02AEA06D000E0189520956A
:10008C0002D001E0189525B90895002704E00EBFB1
:10009C000FEF0DBF1FEF14B95A9A112712E01093EE
:1000AC00690011E01DBB00270093850000938400BC
:1000BC0009E01DE3109389000093880000271127A5
:1000CC0018E003E0100F10938100112712E0109339
:1000DC006F0010E011E010933300002701E020E0E6
:0A00EC003327789488950000FDCFBB
:00000001FF
